:0600000000F0B5EF1FF057
:103F6800FFFF0001B8EF1FF0FFFF93949386800EC8
:103F78006F6EC10E706EAE0E716E450E726E000ED3
:103F8800736E080E6F6EFFFF0F0EE8CF41FFE00E55
:103F9800E8CF42FF0FEE45F0EF80010EE8CF46FF75
:103FA800000EE8CF47FF000EE8CF48FF000EE8CF2D
:103FB80049FF000EE8CF4AFF000EE8CF4BFF000E86
:103FC800E8CF4CFF000EE8CF4DFF080EE8CF40FFCA
:103FD800080E6F6E0A0E026E850E016E9F0EFFFFB1
:103FE800E82EFDD7012EFBD7022EF9D700D0C7EF58
:083FF8001FF001EF00F0FFFFD4
:020000040020DA
:08000000FFFFFFFFFFFFFFFF00
:020000040030CA
:04000000FF220D0EC0
:0800060080FF0FC00FE00F4066
:00000001FF
