:0600000000F019EF00F012
:10000800FFFF0F82A4A00BEF00F00EEF00F0FFFF40
:1000180014EF00F0FFFFA490000E0A6E010E096EA7
:10002800FFFF0F921100FFFFFFFFCFEF00F0FFFF70
:10003800E1EC00F0DAEC00F09AEC00F0FFFF5DEC88
:1000480000F009500A10D8B42CEF00F02FEF00F0A0
:10005800FFFF22EF00F0FFFFB9EC00F0000E0A6E80
:10006800000E096E0A0E0E6E850E0D6E9F0EFFFFB6
:10007800E82EFDD70D2EFBD70E2EF9D700D081BC68
:1000880048EF00F04CEF00F0FFFF010E4EEF00F0DC
:10009800FFFF000EFFFFFF0A0D6E0D3A0D460D46DD
:1000A80081500D18BF0B0D18816E22EF00F019EF6B
:1000B80000F0FFFF0F0EE8CF41FFE00EE8CF42FF50
:1000C800010EE8CF45FF2FEE46F001C0DFFF2FEE0F
:1000D80047F002C0DFFF2FEE48F003C0DFFF2FEE2E
:1000E80049F004C0DFFF2FEE4AF005C0DFFF2FEE16
:1000F8004BF006C0DFFF2FEE4CF007C0DFFF2FEEFE
:100108004DF008C0DFFF080EE8CF40FF080E6F6E05
:10011800140E0C6E0A0E0B6E400EFFFFE82EFDD774
:100128000B2EFBD70C2EF9D71200FFFFFFFF800E16
:100138006F6EC10E706EAE0E716EA50E726E61504E
:100148006250200E736E0E0E6F6EA380A580000E97
:10015800E8CF00FF000EE8CF01FF000EE8CF18FF40
:10016800000EE8CF19FF1200FFFFFFFF0E0E6F6EA3
:1001780066CF01F067CF02F068CF03F069CF04F0D3
:100188006ACF05F06BCF06F06CCF07F06DCF08F0A3
:10019800609E1200FFFF00EE01F00A0EEE6AE8060C
:1001A800FDE10F900F9200011BEF00F0FFFF939409
:1001B8009386939E939C1200FFFFFFFFF28EF28CB2
:0601C8001200FFFFFFFF23
:020000040020DA
:08000000FFFFFFFFFFFFFFFF00
:020000040030CA
:04000000FF220D0EC0
:0800060080FF0FC00FE00F4066
:00000001FF
